:100000000C944E010C9476010C9476010C947601BC
:100010000C9476010C9476010C9476010C94760184
:100020000C9476010C9417060C9476010C947601CE
:100030000C9476010C9476010C9476010C94760164
:100040000C94CD050C9476010C9491020C946B02E7
:100050000C9476010C9476010C9476010C94760144
:100060000C947D060C94760100000008000201004B
:100070000003040700000000000000000000000072
:100080000000005F00000007000700147F147F14C9
:10009000242A7F2A1223130864623649562050000E
:1000A00008070300001C2241000041221C002A1CFA
:1000B0007F1C2A08083E08080080703000080808E5
:1000C0000808000060600020100804023E51494505
:1000D0003E00427F400072494949462141494D3323
:1000E0001814127F1027454545393C4A494931418A
:1000F000211109073649494936464949291E000058
:1001000014000000403400000008142241141414AC
:100110001414004122140802015909063E415D5998
:100120004E7C1211127C7F494949363E41414122A1
:100130007F4141413E7F494949417F090909013ECB
:10014000414151737F0808087F00417F41002040F2
:10015000413F017F081422417F404040407F021C04
:10016000027F7F0408107F3E4141413E7F0909091B
:10017000063E4151215E7F091929462649494932E7
:1001800003017F01033F4040403F1F2040201F3FAD
:100190004038403F63140814630304780403615932
:1001A000494D43007F414141020408102000414174
:1001B000417F040201020440404040400003070820
:1001C0000020545478407F2844443838444444281C
:1001D000384444287F385454541800087E090218C3
:1001E000A4A49C787F0804047800447D400020404B
:1001F000403D007F1028440000417F40007C04788F
:1002000004787C080404783844444438FC182424D6
:100210001818242418FC7C08040408485454542456
:1002200004043F44243C4040207C1C2040201C3CD3
:100230004030403C44281028444C9090907C4464CA
:10024000544C44000836410000007700000041365D
:10025000080002010204023C2623263C00000000A4
:10026000250028002B0000000000240027002A00A1
:10027000040404040404040402020202020203034C
:100280000303030301020408102040800102040854
:100290001020010204081020C90E990E11241FBE5F
:1002A000CFEFD8E0DEBFCDBF12E0A0E0B1E0E4EBDD
:1002B000F4E202C005900D92A231B107D9F723E014
:1002C000A2E1B2E001C01D92AD3DB207E1F711E03D
:1002D000CDE4D1E004C02197FE010E94A90FCC34E7
:1002E000D107C9F70E94AE090C944D120C9400007E
:1002F000FC01918D828D981761F0828DDF01A80F2E
:10030000B11D5D968C91928D9F5F9F73928F90E04F
:1003100008958FEF9FEF0895FC01918D828D9817BE
:1003200031F0828DE80FF11D858D90E008958FEFFB
:100330009FEF0895FC01918D228D892F90E0805CC4
:100340009F4F821B91098F73992708958FEC92E03C
:100350000E949A0121E0892B09F420E0822F089560
:10036000FC01848DDF01A80FB11DA35ABF4F2C9152
:10037000848D90E001968F739927848FA689B78921
:100380002C93A089B1898C9180648C93938D848DFA
:10039000981306C00288F389E02D80818F7D8083C9
:1003A0000895EF92FF920F931F93CF93DF93EC0189
:1003B00081E0888F9B8D8C8D981305C0E889F98921
:1003C000808185FD24C0F62E0B8D10E00F5F1F4F3E
:1003D0000F731127E02E8C8DE8120CC00FB607FCAE
:1003E000FACFE889F989808185FFF5CFCE010E9497
:1003F000B001F1CF8B8DFE01E80FF11DE35AFF4FE5
:10040000F0820B8FEA89FB898081806207C0EE89C8
:10041000FF896083E889F98980818064808381E035
:1004200090E0DF91CF911F910F91FF90EF90089591
:10043000CF93DF93EC01888D8823C9F0EA89FB898B
:10044000808185FD05C0A889B9898C9186FD0FC082
:100450000FB607FCF5CF808185FFF2CFA889B98957
:100460008C9185FFEDCFCE010E94B001E7CFDF91E7
:10047000CF91089580E090E0892B29F00E94A60199
:1004800081110C94000008953FB7F89480911202F6
:1004900090911302A0911402B091150226B5A89B69
:1004A00005C02F3F19F00196A11DB11D3FBFBA2F06
:1004B000A92F982F8827820F911DA11DB11DBC0166
:1004C000CD0142E0660F771F881F991F4A95D1F72B
:1004D00008950E94A6111F920F920FB60F92112439
:1004E0002F933F934F935F936F937F938F939F933C
:1004F000AF93BF93EF93FF938FEC92E00E94B00114
:10050000FF91EF91BF91AF919F918F917F916F91EB
:100510005F914F913F912F910F900FBE0F901F90C1
:1005200018951F920F920FB60F9211242F938F934D
:100530009F93EF93FF93E091DF02F091E0028081BF
:10054000E091E502F091E60282FD12C09081809177
:10055000E8028F5F8F732091E902821751F0E091DA
:10056000E802F0E0E153FD4F958F8093E80201C06F
:100570008081FF91EF919F918F912F910F900FBEEE
:100580000F901F90189590E0FC01E859FF4F3491AF
:10059000FC01EC57FD4F2491FC01E059FD4FE49123
:1005A000EE2309F43BC0332339F1333091F038F4B2
:1005B0003130A9F0323001F584B58F7D12C037306B
:1005C00091F03830A1F03430B9F4809180008F7D03
:1005D00003C0809180008F77809380000DC084B528
:1005E0008F7784BD09C08091B0008F7703C0809160
:1005F000B0008F7D8093B000F0E0EE0FFF1FE45A53
:10060000FD4FA591B4918FB7F894EC91611103C09F
:1006100020952E2301C02E2B2C938FBF089585ED9E
:100620008093BC008091BC0084FDFCCF1092AA0294
:10063000089540915A02262F30E0240F311D2132B7
:100640003105DCF42091AA022430C9F4FC0180E0D9
:1006500090E0861758F430915A022191DC01A85C91
:10066000BD4FA30FB11D2C930196F3CF80915A0279
:10067000680F60935A0280E0089581E0089582E057
:10068000089508958FEF9FEF08958FEF9FEF0895DE
:100690008091370290E09195819591090895CF92CC
:1006A000DF92EF92FF920F931F93CF93DF937C0122
:1006B000262F972F8A018091AB02882391F0C62FB5
:1006C000D72F6E01C40ED51ECC15DD0571F06991D2
:1006D000D701ED91FC910190F081E02DC7010995C2
:1006E000F3CF642F822F0E941903C801DF91CF91AD
:1006F0001F910F91FF90EF90DF90CF900895CF93CF
:10070000DF931F92CDB7DEB769832091AB0222231E
:10071000D1F02091CE02203240F021E030E0FC0107
:100720003383228380E090E015C08091AC02E82FF3
:10073000F0E0E355FD4F998190838F5F8093AC0289
:100740008093CE0205C061E0CE0101960E9419039C
:1007500081E090E00F90DF91CF910895CF93C62F65
:1007600081E08093AB028CE38093CD021092AC02C7
:100770001092CE0260E48CE693E00E947F036C2F1F
:100780008CE693E00E947F03CF910C943C08CF93BA
:10079000C62F81E08093AB028CE38093CD02109250
:1007A000AC021092CE0260E08CE693E00E947F03E0
:1007B0006C2F8CE693E00E947F03CF910C943C0851
:1007C0000F931F93CF93DF9300D0CDB7DEB78C018B
:1007D000262F683008F027E047FD4FE7F801258312
:1007E0004483642F6F70C8012A8349830E94C70322
:1007F000498142954F70642F6061C8010E94C70310
:100800002A81622F606BC8010F900F90DF91CF910A
:100810001F910F910C94C7032F923F924F925F92BA
:100820006F927F928F929F92AF92BF92CF92DF9200
:10083000EF92FF920F931F93CF93DF93EC018E8182
:10084000FC80813071F547E04F0D4C8380EE860FC0
:10085000803608F06FE700EE060F85E0089F800104
:100860001124E12CF12CF701E00FF11FE458FF4FA8
:100870006491CE010E94AE038FEFE81AF80A85E07A
:10088000E816F10481F710E08F81181708F0A1C075
:100890008C818F5F8C8360E0CE010E94AE031F5F6E
:1008A000F3CFED80062F10E00052110985E0809F04
:1008B0004001819F900C112400E010E03324339418
:1008C000552453949CE3492E8E81181758F49D812A
:1008D000A12EB12C9501290F311D97FD3A95203895
:1008E00031056CF04F81F40E482F440F440F840FF4
:1008F0004F2D480F6E2DCE010E94E0036AC01123D8
:1009000031F04F2D612F6E0DCE010E94E00383E088
:10091000AA0CBB1C8A95E1F7C12CD12CF601E80D7D
:10092000F91DE458FF4FE491FE816F2F70E0C5017F
:100930000E945F0F332D01C0330F6A95EAF7502FE5
:1009400087E0F89F500D112421E0612CB32FBE23C6
:10095000A52FAF1B5A1779F0B111622A220F5150FF
:10096000852F6F2F0E94530F911102C0330F03C0C8
:100970002111F0CF02C02111E9CF2090B8008CE006
:100980008093B8005092AB024092CD021092AC021C
:100990001092CE0260E48CE693E00E947F03712CFB
:1009A0008E81781638F4662D8CE693E00E947F03E2
:1009B0007394F6CF0E943C082092B8008FEFC81ABB
:1009C000D80A85E0C816D10409F0A8CF1F5F0850E7
:1009D0007BCF81E090E0DF91CF911F910F91FF904D
:1009E000EF90DF90CF90BF90AF909F908F907F90CF
:1009F0006F905F904F903F902F9008958F929F92AD
:100A0000AF92BF92CF92DF92EF92FF92CF93DF939C
:100A1000CDB7DEB7A1970FB6F894DEBF0FBECDBF3E
:100A20008091230290912402892B41F48091250228
:100A300090912602909324028093230280912302B6
:100A400090912402019790932402809323021A82AA
:100A500019821C821B821E821D826091AE037091DE
:100A6000AF036115710541F04091B2035091B3039A
:100A7000CE0101960E941609ED80FE8082E0E80E0C
:100A8000F11CB701CE0101960E94DD08882309F40C
:100A90007FC029813A818D819E8168EC71E0820F4F
:100AA000931F0E94BD11FE82ED824D815E8169819E
:100AB0007A818FEC92E00E94E007CE0101960E94BD
:100AC000A909C0902302D09024020D2C000CEE083E
:100AD000FF08F7FE2BC0E091CF02F091D002019009
:100AE000F081E02D6DE28FEC92E00995222733270B
:100AF000A9012C193D094E095F0919A2FE01B19601
:100B00007F019AE0892E912CA12CB12CCA01B90148
:100B1000A50194010E94730F605DF70162937F014C
:100B2000211531054105510589F71AC0A701960124
:100B300019A2CE0181967C018AE0882E912CA12CED
:100B4000B12CCA01B901A50194010E94730F605D27
:100B5000F70162937F01211531054105510589F7A0
:100B6000C7010E940B088BEC91E00E940B08A19634
:100B70000FB6F894DEBF0FBECDBFDF91CF91FF90CF
:100B8000EF90DF90CF90BF90AF909F908F9008959F
:100B9000CE0101960E94040988CF1F920F920FB6D2
:100BA0000F9211242F933F938F939F93AF93BF93F3
:100BB0008091800290918102A0918202B091830283
:100BC00030917F0223E0230F2D3720F40196A11DE1
:100BD000B11D05C026E8230F0296A11DB11D20936B
:100BE0007F028093800290938102A0938202B0934F
:100BF00083028091120290911302A0911402B0918D
:100C000015020196A11DB11D80931202909313024B
:100C1000A0931402B0931502BF91AF919F918F9151
:100C20003F912F910F900FBE0F901F9018951F921C
:100C30000F920FB60F9211242F933F934F935F9310
:100C40006F937F938F939F93AF93BF93EF93FF9394
:100C500080911C0290911D028093B20080911F022E
:100C600090912002A0912102B09122020196A11D33
:100C7000B11D80931F0290932002A0932102B09394
:100C8000220240911F025091200260912102709136
:100C900022028091180290911902A0911A02B0913B
:100CA0001B02481759076A077B07B0F080911E02A4
:100CB000811112C081E080931E0210921F021092D7
:100CC00020021092210210922202E0911602F0916D
:100CD0001702099510921E02FF91EF91BF91AF91FB
:100CE0009F918F917F916F915F914F913F912F9144
:100CF0000F900FBE0F901F9018951F920F920FB676
:100D00000F9211242F933F934F935F936F937F9391
:100D10008F939F93AF93BF93EF93FF938091B9000D
:100D2000887F803609F49CC068F5883209F45BC07E
:100D300090F4803109F454C038F4882309F4F6C0E3
:100D4000883009F44DC0F6C0883109F44CC08032B7
:100D500009F45DC0EFC0803409F468C048F4803302
:100D600009F455C0883309F0E5C08093A802D8C0C3
:100D7000803509F44FC0883509F45DC0883409F026
:100D8000D9C0D6C0883909F4C7C0A8F4883709F497
:100D900067C038F4883609F463C0803709F460C04E
:100DA000C9C0883809F4B8C0803909F45FC08038F8
:100DB00009F0C0C05BC0803B09F486C038F4803ABB
:100DC00009F466C0883A09F47FC0B4C0803C09F4D5
:100DD000A7C0883C09F4A4C0883B09F48AC0AAC013
:100DE0008091850210C09091A7028091A602981769
:100DF00070F5E091A70281E08E0F8093A702F0E0EA
:100E0000EA57FD4F80818093BB0085EC86C08093BC
:100E1000A8028EC0E091A70281E08E0F8093A70206
:100E20008091BB00F0E0EA57FD4F80839091A702CC
:100E30008091A6026EC0E091A70281E08E0F8093A0
:100E4000A7028091BB00F0E0EA57FD4F80838091BC
:100E5000A90281116DC081E08093840284EA61C09F
:100E600083E08093AA0210927E02CFCF80917E020F
:100E7000803208F051C0E0917E0281E08E0F8093B5
:100E80007E028091BB00F0E0E25AFD4F8083BDCF2F
:100E900085EC8093BC001092AA0280917E02803281
:100EA00030F4E0917E02F0E0E25AFD4F1082609152
:100EB0007E0270E0E0915C02F0915D028EE592E0CE
:100EC000099510927E0236C084E08093AA021092A7
:100ED0005B0210925A02E0915802F0915902099572
:100EE00080915A02811105C081E080935A021092CC
:100EF0003802E0915B0281E08E0F80935B02F0E0AC
:100F0000E85CFD4F80818093BB0090915B028091F3
:100F10005A02981708F479CF85E88093BC000AC07C
:100F200085EC8093BC001092AA0204C01092A80223
:100F30000E940F03FF91EF91BF91AF919F918F910D
:100F40007F916F915F914F913F912F910F900FBEC5
:100F50000F901F9018950C9408120C94001260E0EA
:100F600083E00E94C30260E084E00E94C30260E06C
:100F700086E00E94C30260E087E00E94C30260E056
:100F800088E00E94C30260E08FE00E94C30260E03C
:100F900080E10E94C30260E089E00E94C30261E038
:100FA0008AE00E94C30261E082E00E94C30261E025
:100FB00085E00E94C30261E08EE00C94C3020895B4
:100FC000CF92DF92EF92FF920F931F93CF93DF9315
:100FD0006C017A018B01C0E0D0E0CE15DF0589F00D
:100FE000D8016D918D01D601ED91FC910190F081B8
:100FF000E02DC6010995892B11F47E0102C02196CE
:10100000ECCFC701DF91CF911F910F91FF90EF902F
:10101000DF90CF900895009769F0FC0101900020C7
:10102000E9F73197AF01481B590BBC018FEC92E0F7
:101030000C94E00780E090E0089590E0FC01EC570C
:10104000FD4F2491FC01E059FD4F8491882399F0D4
:1010500090E0880F991FFC01EA59FD4FA591B491CA
:10106000FC01E45AFD4F859194918FB7F894EC916F
:10107000E22BEC938FBF08952091CE029091CD0288
:10108000213208F04AC08091AA028111FCCF32E0DF
:101090003093AA0231E03093A9023FEF3093A802C7
:1010A0001092A7022093A602ADEAB2E046E852E011
:1010B000FA013E2F341B321718F43D913193F9CFCA
:1010C0001092850220918502990F922B90938502B0
:1010D00090918402913061F4109284029091850283
:1010E0009093BB009091BC0093FDF8CF95EC01C0AC
:1010F00095EE9093BC009091AA029230E1F390910A
:10110000A8029F3F79F08091A802803241F080913F
:10111000A802803331F084E005C081E003C082E0A2
:1011200001C083E01092AC021092CE021092AB028A
:101130000895FC0180819181009711F00C94C411F5
:1011400060E070E0CB0108950F931F93CF93DF937E
:101150008C01EB01FC01808191810097B1F06881E5
:1011600079816115710579F0428153812C813D812E
:101170004217530740F00E94BD118C819D81F801F8
:101180009583848313C00E94441088819981F8015B
:10119000918380838A819B81938382838C819D81CB
:1011A00095838483198218821B821A821D821C8275
:1011B000DF91CF911F910F9108950F931F93CF93BC
:1011C000DF93EC0188819981009729F02A813B8186
:1011D0002617370788F48B016F5F7F4F0E94DC1062
:1011E000009761F0998388831B830A832C813D815A
:1011F000232B11F4FC01108281E001C080E0DF911B
:10120000CF911F910F910895CF93DF93EC018881C7
:101210009981009711F00E944410198218821D8252
:101220001C821B821A82DF91CF910895EF92FF9268
:101230000F931F93CF93DF93EC017B018A01BA01D7
:101240000E94DD08811104C0CE010E94040907C07C
:101250001D830C83B701888199810E94BD11CE0145
:10126000DF91CF911F910F91FF90EF900895CF9351
:10127000DF93EC016115710559F0FB01019000202D
:10128000E9F73197AF01461B570B0E94160902C0C0
:101290000E940409CE01DF91CF910895FC011182D3
:1012A000108213821282158214826115710551F029
:1012B000FB0101900020E9F73197AF01461B570B66
:1012C0000C9416090895BF92CF92DF92EF92FF928D
:1012D0000F931F93CF93DF937C016B018A01E90188
:1012E0002417350720F4812F8901C42FD82F6DECE6
:1012F00071E0C7010E944E09D60114968D919C9110
:10130000159708171907D0F48C179D0708F4EC01FE
:10131000D601ED91FC911197EC0FFD1FB08010826A
:101320004D915C91BA01600F711FC7010E9437098E
:10133000D601ED91FC91EC0FFD1FB082C701DF914A
:10134000CF911F910F91FF90EF90DF90CF90BF90C2
:101350000895FC01808191810C944410CF93DF9318
:10136000CDB7DEB72C970FB6F894DEBF0FBECDBF5A
:10137000789484B5826084BD84B5816084BD85B570
:10138000826085BD85B5816085BD80916E0081607C
:1013900080936E0010928100809181008260809322
:1013A0008100809181008160809381008091800024
:1013B0008160809380008091B10084608093B1004F
:1013C0008091B00081608093B00080917A00846049
:1013D00080937A0080917A00826080937A00809175
:1013E0007A00816080937A0080917A00806880938F
:1013F0007A001092C10082E00E941D0883E00E94E2
:101400001D0884E00E941D0885E00E941D0886E0FA
:101410000E941D0887E00E941D0888E00E941D08A8
:1014200089E00E941D088AE00E941D088EE00E944B
:101430001D088FE00E941D0880E10E941D0881E0C8
:1014400090E00E94AD0790E09093360280933502C1
:1014500082E090E00E94AD0790E090933402809388
:10146000330283E090E00E94AD0790E09093320257
:101470008093310284E090E00E94AD0790E0909369
:10148000300280932F0285E090E00E94AD0790E04B
:1014900090932E0280932D0286E090E00E94AD078B
:1014A00090E090932C0280932B0287E090E00E94C2
:1014B000AD0790E090932A028093290288E090E0A3
:1014C0000E94AD0790E0909328028093270289E064
:1014D00090E00E94AD0790E0909326028093250251
:1014E0009093240280932302E091DF02F091E002C6
:1014F00082E08083E091DB02F091DC021082E091D7
:10150000DD02F091DE0280E180831092E702E0913B
:10151000E302F091E40286E08083E091E102F09141
:10152000E202808180618083E091E102F091E20239
:10153000808188608083E091E102F091E202808105
:1015400080688083E091E102F091E20280818F7DEA
:101550008083809170008E7F809370008091B000B6
:101560008C7F8093B0008091B100877F8093B10021
:101570008091B6008F7D8093B600809170008D7F42
:10158000809370008091B10084608093B10080915D
:10159000B1008C7F8093B10086E090E090931D02B3
:1015A00080931C0288EE93E0A0E0B0E080931802E4
:1015B00090931902A0931A02B0931B028EEF94E04D
:1015C000909317028093160210921F02109220022D
:1015D000109221021092220210921E0280911C028F
:1015E00090911D028093B200809170008160809381
:1015F00070008FEC92E00E949A01181619060CF008
:101600004DC08FEC92E00E94780189831A8200918C
:10161000BE031091BF030F5F1F4FB8018AEB93E029
:101620000E94DD08882399F02091BA033091BB0312
:101630008091BE039091BF03BE016F5F7F4F820F09
:10164000931F0E94BD111093BF030093BE030E941D
:1016500044026B017C0192E0892E912CA12CB12CCB
:101660000E944402DC01CB018C199D09AE09BF091F
:10167000883E9340A105B10598F328EEC20E23E001
:10168000D21EE11CF11C8A9489288A288B2809F42F
:10169000B0CF812C912C54018394E2CF28E030E02C
:1016A00040E050E064EB73E0CE0101960E946309D4
:1016B00028E030E040E050E06AEB73E0CE010796AE
:1016C0000E9463092B853C858D819E8128173907EF
:1016D00019F58F81988569817A81009719F06115D4
:1016E0007105A9F46115710551F02115310539F025
:1016F000FB01808190E09195819591090AC0009746
:1017000069F0232B59F0FC01808190E002C00E9417
:10171000B41111E0892B19F010E001C011E0CE01E5
:1017200007960E94A909CE0101960E94A9091123DA
:1017300009F445C12DE030E04BE050E06AEB73E086
:10174000CE0101960E946309BE016F5F7F4F88EA58
:1017500093E00E94A408CE0101960E94A90923E10A
:1017600030E041E150E06AEB73E0CE0101960E9467
:101770006309BE016F5F7F4F82EA93E00E94A40875
:10178000CE0101960E94A9092AE130E048E150E02B
:101790006AEB73E0CE0101960E946309BE016F5FA0
:1017A0007F4F8CE993E00E94A408CE0101960E942D
:1017B000A90921E230E04FE150E06AEB73E0CE018D
:1017C00001960E946309BE016F5F7F4F86E993E037
:1017D0000E94A408CE0101960E94A90927E230E0E8
:1017E00045E250E06AEB73E0CE0101960E94630986
:1017F000BE016F5F7F4F80E993E00E94A408CE0195
:1018000001960E94A9092DE230E04BE250E06AEB1C
:1018100073E0CE0101960E946309BE016F5F7F4FA6
:101820008AE893E00E94A408CE0101960E94A909CB
:1018300024E330E042E350E06AEB73E0CE0101962E
:101840000E946309BE016F5F7F4F84E893E00E94AE
:10185000A408CE0101960E94A9092BE330E049E3D8
:1018600050E06AEB73E0CE0101960E946309BE016D
:101870006F5F7F4F8EE793E00E94A408CE01019630
:101880000E94A90922E430E04FE350E06AEB73E0E4
:10189000CE0101960E946309BE016F5F7F4F88E70A
:1018A00093E00E94A408CE0101960E94A90988EA4B
:1018B00093E00E949908162F109335027093360218
:1018C00082EA93E00E949908709334026093330295
:1018D0008CE993E00E949908709332026093310280
:1018E00086E993E00E9499087093300260932F027A
:1018F00080E993E00E94990870932E0260932D0274
:101900008AE893E00E94990870932C0260932B025E
:1019100084E893E00E94990870932A026093290258
:101920008EE793E00E949908709328026093270243
:1019300088E793E00E94990870932602609325023D
:10194000612F81E090E00E94AB076091330282E05A
:1019500090E00E94AB076091310283E090E00E942A
:10196000AB0760912F0284E090E00E94AB0760918A
:101970002D0285E090E00E94AB0760912B0286E08B
:1019800090E00E94AB076091290287E090E00E94FE
:10199000AB076091270288E090E00E94AB0760915E
:1019A000250289E090E00E94AB0786E391E00E9467
:1019B0000B086DEC71E08AEB93E00E94370900910F
:1019C00023021091240280913502909136028017F3
:1019D00091079CF560E082E00E94C30260E084E031
:1019E0000E94C30260E086E00E94C30260E087E0DC
:1019F0000E94C30260E089E00E94C30260E08AE0C6
:101A00000E94C30260E08EE00E94C30260E08FE0AB
:101A10000E94C30261E083E00E94C30261E085E0AE
:101A20000E94C30261E088E00E94C30261E08EE090
:101A30000E94C30263E471E039C080913302909147
:101A4000340280179107B4F560E082E00E94C3027F
:101A500060E086E00E94C30260E087E00E94C3026B
:101A600060E089E00E94C30260E08AE00E94C30255
:101A700060E08FE00E94C30260E080E10E94C30248
:101A800060E083E00E94C30261E084E00E94C30240
:101A900061E085E00E94C30261E088E00E94C30229
:101AA00061E08EE00E94C30261E571E08EEA93E09E
:101AB0000E94370980913302909134028017910778
:101AC000ECF1809131029091320280179107B4F5C8
:101AD00060E083E00E94C30260E084E00E94C302F1
:101AE00060E085E00E94C30260E087E00E94C302DC
:101AF00060E089E00E94C30260E08AE00E94C302C5
:101B000060E08FE00E94C30260E080E10E94C302B7
:101B100061E086E00E94C30261E082E00E94C302AD
:101B200061E088E00E94C30261E08EE00E94C3028F
:101B30006FE571E08EEA93E00E94370980913102EF
:101B40009091320280179107ECF180912F029091D1
:101B5000300280179107B4F560E083E00E94C30271
:101B600060E084E00E94C30260E085E00E94C3025E
:101B700060E089E00E94C30260E08AE00E94C30244
:101B800060E08FE00E94C30260E080E10E94C30237
:101B900060E086E00E94C30261E087E00E94C30229
:101BA00061E082E00E94C30261E088E00E94C3021B
:101BB00061E08EE00E94C30262E771E08EEA93E08A
:101BC0000E94370980912F0290913002801791076F
:101BD000ECF180912D0290912E0280179107B4F5BF
:101BE00060E083E00E94C30260E084E00E94C302E0
:101BF00060E086E00E94C30260E087E00E94C302CA
:101C000060E088E00E94C30260E08AE00E94C302B4
:101C100060E08FE00E94C30260E080E10E94C302A6
:101C200061E089E00E94C30261E082E00E94C30299
:101C300061E085E00E94C30261E08EE00E94C30281
:101C400068E871E08EEA93E00E94370980912D02E6
:101C500090912E02801791077CF080912B02909139
:101C60002C028017910744F40E94AF0765E971E0E8
:101C70008EEA93E00E94370980912B0290912C020A
:101C800080179107ECF18091290290912A02801728
:101C90009107B4F560E083E00E94C30260E084E055
:101CA0000E94C30260E086E00E94C30260E087E019
:101CB0000E94C30260E089E00E94C30260E08AE003
:101CC0000E94C30260E08EE00E94C30260E080E1F7
:101CD0000E94C30261E082E00E94C30261E085E0ED
:101CE0000E94C30261E088E00E94C30261E08FE0CD
:101CF0000E94C30262EA71E08EEA93E00E94370913
:101D00008091290290912A02801791077CF080919E
:101D10002702909128028017910744F40E94AF0790
:101D200065EB71E08EEA93E00E9437090E943A0267
:101D300060CC88E793E00E94A9098EE793E00E94B7
:101D4000A90984E893E00E94A9098AE893E00E9427
:101D5000A90980E993E00E94A90986E993E00E941D
:101D6000A9098CE993E00E94A90982EA93E00E9404
:101D7000A90988EA93E00E94A9098EEA93E00E94EB
:101D8000A90984EB93E00E94A9098AEB93E00C94E3
:101D9000A909EFECF2E01382128288EE93E0A0E052
:101DA000B0E084839583A683B7832AE031E0318352
:101DB000208325EC30E03587248724EC30E037871A
:101DC000268720EC30E0318B208B21EC30E0338B08
:101DD000228B22EC30E0358B248B26EC30E0378BE5
:101DE000268B118E128E138E148EECE6F3E0138286
:101DF000128284839583A683B7838AE191E09183DD
:101E00008083E0ECF3E0138212828AE291E0918316
:101E1000808381E183876DEC71E08AEB93E00E941F
:101E20004E096EEC71E084EB93E00E944E096DEC7C
:101E300071E08EEA93E00E944E096DEC71E088EA51
:101E400093E00E944E096DEC71E082EA93E00E94FB
:101E50004E096DEC71E08CE993E00E944E096DEC47
:101E600071E086E993E00E944E096DEC71E080E933
:101E700093E00E944E096DEC71E08AE893E00E94C5
:101E80004E096DEC71E084E893E00E944E096DEC20
:101E900071E08EE793E00E944E096DEC71E088E7F7
:101EA00093E00C944E09991B79E004C0991F961792
:101EB00008F0961B881F7A95C9F78095089597FBBF
:101EC000072E16F4009407D077FD09D00E94950FD5
:101ED00007FC05D03EF4909581959F4F089570952D
:101EE00061957F4F0895A1E21A2EAA1BBB1BFD012D
:101EF0000DC0AA1FBB1FEE1FFF1FA217B307E407E9
:101F0000F50720F0A21BB30BE40BF50B661F771F40
:101F1000881F991F1A9469F7609570958095909520
:101F20009B01AC01BD01CF010895AA1BBB1B51E170
:101F300007C0AA1FBB1FA617B70710F0A61BB70B39
:101F4000881F991F5A95A9F780959095BC01CD01DE
:101F50000895EE0FFF1F0590F491E02D0994CF93A3
:101F6000DF938230910510F482E090E0E091DB0392
:101F7000F091DC0320E030E0C0E0D0E0309711F1D8
:101F80004081518148175907C0F04817590761F43B
:101F900082819381209719F09B838A832BC0909331
:101FA000DC038093DB0326C02115310519F04217AD
:101FB000530718F49A01BE01DF01EF010280F3819B
:101FC000E02DDCCF2115310509F1281B390B243018
:101FD000310590F412968D919C91139761157105BE
:101FE00021F0FB019383828304C09093DC038093F0
:101FF000DB03FD01329644C0FD01E20FF31F819324
:102000009193225031092D933C933AC02091D903EA
:102010003091DA03232B41F4209102013091030126
:102020003093DA032093D90320910001309101010C
:102030002115310541F42DB73EB74091040150916F
:102040000501241B350BE091D903F091DA03E21767
:10205000F307A0F42E1B3F0B2817390778F0AC01CB
:102060004E5F5F4F2417350748F04E0F5F1F5093A8
:10207000DA034093D9038193919302C0E0E0F0E04A
:10208000CF01DF91CF9108950F931F93CF93DF93EB
:10209000009709F48CC0FC013297138212820091E0
:1020A000DB031091DC030115110581F420813181DE
:1020B000820F931F2091D9033091DA032817390733
:1020C00079F5F093DA03E093D90371C0D80140E0C9
:1020D00050E0AE17BF0750F412962D913C91139724
:1020E000AD012115310509F1D901F3CF9D01DA01C7
:1020F0003383228360817181860F971F8217930734
:1021000069F4EC0128813981260F371F2E5F3F4F7C
:10211000318320838A819B8193838283452B29F499
:10212000F093DC03E093DB0342C01396FC93EE9341
:102130001297ED01499159919E01240F351FE21725
:10214000F30771F480819181840F951F0296119697
:102150009C938E938281938113969C938E93129776
:10216000E0E0F0E0D80112968D919C9113970097D2
:1021700019F0F8018C01F6CF8D919C9198012E5F9A
:102180003F4F820F931F2091D9033091DA03281714
:10219000390769F4309729F41092DC031092DB03BD
:1021A00002C0138212821093DA030093D903DF91E5
:1021B000CF911F910F910895A0E0B0E0E2EEF0E121
:1021C0000C941A12EC01009721F4CB010E94AF0F7E
:1021D000B8C0FC01E60FF71F9C0122503109E2173D
:1021E000F30708F4ACC0D9010D911C9111970617A3
:1021F0001707B0F00530110508F49FC0C801049717
:102200008617970708F499C002501109061B170B8F
:10221000019311936D937C93CF010E9444108DC064
:102220005B01A01AB10A4C01800E911EA091DB0344
:10223000B091DC0340E050E0E12CF12C109709F460
:102240004AC0A815B905D1F56D907C90119763012E
:1022500082E0C80ED11CCA14DB0480F1A3014A1924
:102260005B096A0182E0C80ED11C1296BC901297DD
:102270001396AC91B5E0CB16D10440F0B282A383A3
:1022800051834083D9016D937C930AC00E5F1F4F29
:10229000C301800F911FF90191838083EB2DFA2FE9
:1022A000E114F10431F0D7011396FC93EE931297E9
:1022B00044C0F093DC03E093DB033FC08D919C911D
:1022C00011974817590708F4AC017D0112960D903B
:1022D000BC91A02DB3CF8091D9039091DA038815DA
:1022E0009905E1F446175707C8F4809100019091D1
:1022F0000101009741F48DB79EB7409104015091C0
:102300000501841B950BE817F907C8F4F093DA036D
:10231000E093D903F901718360830FC0CB010E9460
:10232000AF0F7C01009759F0A801BE010E94AB11CC
:10233000CE010E944410C70104C0CE0102C080E05B
:1023400090E0CDB7DEB7EEE00C94361281E090E07D
:10235000F8940C944D12FB01DC0102C001900D9227
:1023600041505040D8F70895FB01DC018D91019058
:1023700080190110D9F3990B0895FB01DC0101903C
:102380000D920020E1F708951F93FC0199278827FB
:10239000BC01E89411911032E9F3193010F01E30AD
:1023A000C8F31B3251F01D3249F4689406C00E94F4
:1023B000EB11610F711D811D911D119110531A3088
:1023C000B0F33EF490958095709561957F4F8F4F57
:1023D0009F4F1F910895592F482F372F262F660F93
:1023E000771F881F991F660F771F881F991F620F1D
:1023F000731F841F951F660F771F881F991F0895ED
:10240000F999FECF92BD81BDF89A992780B50895BC
:10241000262FF999FECF1FBA92BD81BD20BD0FB600
:10242000F894FA9AF99A0FBE019608952F923F9266
:102430004F925F926F927F928F929F92AF92BF92D4
:10244000CF92DF92EF92FF920F931F93CF93DF9380
:10245000CDB7DEB7CA1BDB0B0FB6F894DEBF0FBEDD
:10246000CDBF09942A88398848885F846E847D842A
:102470008C849B84AA84B984C884DF80EE80FD802C
:102480000C811B81AA81B981CE0FD11D0FB6F894A2
:10249000DEBF0FBECDBFED01089511E0CDE4D1E068
:1024A00004C0FE010E94A90F2196CE34D107C9F7BE
:0424B000F894FFCFCE
:1024B4000000DD03800000000000D101E0079A0164
:1024C40078018C011802000000007F034F034803C9
:1024D400450342034103000000000C04E007000030
:1024E40000006902E007536574537563657373668E
:1024F400756C00E58D97E58C975FE7BBBFE781AF0F
:1025040000E58D97E58C975FE9BB84E781AF00E533
:102514008D97E58C97E8BDACE5BCAFE7BBBFE78121
:10252400AF00E58D97E58C97E8BDACE5BCAFE9BBA2
:1025340084E781AFE781AF00E4B89CE8A5BFE7BBBF
:10254400BFE781AF00E4B89CE8A5BFE9BB84E7819D
:10255400AF00E4B89CE8A5BFE8BDACE5BCAFE7BB01
:10256400BFE781AF00E4B89CE8A5BFE8BDACE5BC1B
:10257400AFE9BB84E781AF003A20000D0A0052475F
:102584005954494D30314E534732365F4E535932C8
:10259400345F4E53544731395F4E53545931375F8A
:1025A40057454730395F57455930375F574554478A
:1025B40030355F5745545930325F53554D303334BD
:0225C400000015
:00000001FF
